{
  "contractName": "ClearingFirm",
  "abi": [
    {
      "constant": true,
      "inputs": [
        {
          "name": "",
          "type": "uint256"
        }
      ],
      "name": "Trades",
      "outputs": [
        {
          "name": "tradeId",
          "type": "uint256"
        },
        {
          "name": "orderType",
          "type": "uint256"
        },
        {
          "name": "status",
          "type": "string"
        },
        {
          "name": "amount",
          "type": "uint256"
        },
        {
          "name": "noofstocks",
          "type": "uint256"
        },
        {
          "name": "stockname",
          "type": "string"
        }
      ],
      "payable": false,
      "stateMutability": "view",
      "type": "function"
    },
    {
      "inputs": [],
      "payable": false,
      "stateMutability": "nonpayable",
      "type": "constructor"
    },
    {
      "constant": false,
      "inputs": [
        {
          "name": "_NoofStocks",
          "type": "uint256"
        },
        {
          "name": "_Amount",
          "type": "uint256"
        },
        {
          "name": "_OrderType",
          "type": "uint256"
        },
        {
          "name": "_StockName",
          "type": "string"
        }
      ],
      "name": "addtradestoClear",
      "outputs": [
        {
          "name": "Id",
          "type": "uint256"
        }
      ],
      "payable": false,
      "stateMutability": "nonpayable",
      "type": "function"
    },
    {
      "constant": false,
      "inputs": [
        {
          "name": "buyer",
          "type": "address"
        },
        {
          "name": "seller",
          "type": "address"
        },
        {
          "name": "buytradeId",
          "type": "uint256"
        },
        {
          "name": "selltradeId",
          "type": "uint256"
        },
        {
          "name": "Amount",
          "type": "uint256"
        }
      ],
      "name": "ClearTrade",
      "outputs": [
        {
          "name": "",
          "type": "bool"
        }
      ],
      "payable": true,
      "stateMutability": "payable",
      "type": "function"
    },
    {
      "constant": true,
      "inputs": [
        {
          "name": "id",
          "type": "uint256"
        }
      ],
      "name": "getTrade",
      "outputs": [
        {
          "name": "",
          "type": "uint256"
        },
        {
          "name": "",
          "type": "uint256"
        },
        {
          "name": "",
          "type": "string"
        },
        {
          "name": "",
          "type": "uint256"
        },
        {
          "name": "",
          "type": "uint256"
        },
        {
          "name": "",
          "type": "string"
        }
      ],
      "payable": false,
      "stateMutability": "view",
      "type": "function"
    },
    {
      "constant": true,
      "inputs": [],
      "name": "getTradecount",
      "outputs": [
        {
          "name": "",
          "type": "uint256"
        }
      ],
      "payable": false,
      "stateMutability": "view",
      "type": "function"
    }
  ],
  "bytecode": "0x608060405234801561001057600080fd5b50336000806101000a81548173ffffffffffffffffffffffffffffffffffffffff021916908373ffffffffffffffffffffffffffffffffffffffff160217905550610b42806100606000396000f30060806040526004361061006d576000357c0100000000000000000000000000000000000000000000000000000000900463ffffffff168063026c23341461007257806318385f481461009d5780632db25e05146101cb5780632e748715146102f95780638843515114610385575b600080fd5b34801561007e57600080fd5b50610087610420565b6040518082815260200191505060405180910390f35b3480156100a957600080fd5b506100c86004803603810190808035906020019092919050505061042a565b604051808781526020018681526020018060200185815260200184815260200180602001838103835287818151815260200191508051906020019080838360005b83811015610124578082015181840152602081019050610109565b50505050905090810190601f1680156101515780820380516001836020036101000a031916815260200191505b50838103825284818151815260200191508051906020019080838360005b8381101561018a57808201518184015260208101905061016f565b50505050905090810190601f1680156101b75780820380516001836020036101000a031916815260200191505b509850505050505050505060405180910390f35b3480156101d757600080fd5b506101f660048036038101908080359060200190929190505050610596565b604051808781526020018681526020018060200185815260200184815260200180602001838103835287818151815260200191508051906020019080838360005b83811015610252578082015181840152602081019050610237565b50505050905090810190601f16801561027f5780820380516001836020036101000a031916815260200191505b50838103825284818151815260200191508051906020019080838360005b838110156102b857808201518184015260208101905061029d565b50505050905090810190601f1680156102e55780820380516001836020036101000a031916815260200191505b509850505050505050505060405180910390f35b61036b600480360381019080803573ffffffffffffffffffffffffffffffffffffffff169060200190929190803573ffffffffffffffffffffffffffffffffffffffff169060200190929190803590602001909291908035906020019092919080359060200190929190505050610721565b604051808215151515815260200191505060405180910390f35b34801561039157600080fd5b5061040a600480360381019080803590602001909291908035906020019092919080359060200190929190803590602001908201803590602001908080601f01602080910402602001604051908101604052809392919081815260200183838082843782019150505050505091929192905050506109ac565b6040518082815260200191505060405180910390f35b6000600254905090565b6001602052806000526040600020600091509050806000015490806001015490806002018054600181600116156101000203166002900480601f0160208091040260200160405190810160405280929190818152602001828054600181600116156101000203166002900480156104e25780601f106104b7576101008083540402835291602001916104e2565b820191906000526020600020905b8154815290600101906020018083116104c557829003601f168201915b505050505090806003015490806004015490806005018054600181600116156101000203166002900480601f01602080910402602001604051908101604052809291908181526020018280546001816001161561010002031660029004801561058c5780601f106105615761010080835404028352916020019161058c565b820191906000526020600020905b81548152906001019060200180831161056f57829003601f168201915b5050505050905086565b60008060606000806060600060016000898152602001908152602001600020905080600001548160010154826002018360030154846004015485600501838054600181600116156101000203166002900480601f0160208091040260200160405190810160405280929190818152602001828054600181600116156101000203166002900480156106685780601f1061063d57610100808354040283529160200191610668565b820191906000526020600020905b81548152906001019060200180831161064b57829003601f168201915b50505050509350808054600181600116156101000203166002900480601f0160208091040260200160405190810160405280929190818152602001828054600181600116156101000203166002900480156107045780601f106106d957610100808354040283529160200191610704565b820191906000526020600020905b8154815290600101906020018083116106e757829003601f168201915b505050505090509650965096509650965096505091939550919395565b60008060008060009054906101000a900473ffffffffffffffffffffffffffffffffffffffff1673ffffffffffffffffffffffffffffffffffffffff163373ffffffffffffffffffffffffffffffffffffffff1614151561078157600080fd5b8791508690506040805190810160405280600181526020017f31000000000000000000000000000000000000000000000000000000000000008152506001600088815260200190815260200160002060020190805190602001906107e6929190610a71565b506040805190810160405280600181526020017f3100000000000000000000000000000000000000000000000000000000000000815250600160008781526020019081526020016000206002019080519060200190610846929190610a71565b508073ffffffffffffffffffffffffffffffffffffffff16632e1a7d4d856040518263ffffffff167c010000000000000000000000000000000000000000000000000000000002815260040180828152602001915050602060405180830381600087803b1580156108b657600080fd5b505af11580156108ca573d6000803e3d6000fd5b505050506040513d60208110156108e057600080fd5b8101908080519060200190929190505050508173ffffffffffffffffffffffffffffffffffffffff1663b6b55f25856040518263ffffffff167c010000000000000000000000000000000000000000000000000000000002815260040180828152602001915050602060405180830381600087803b15801561096157600080fd5b505af1158015610975573d6000803e3d6000fd5b505050506040513d602081101561098b57600080fd5b81019080805190602001909291905050505060019250505095945050505050565b60008060016000600254815260200190815260200160002090506002548160000181905550828160050190805190602001906109e9929190610a71565b508581600401819055508381600101819055506040805190810160405280600181526020017f3000000000000000000000000000000000000000000000000000000000000000815250816002019080519060200190610a49929190610a71565b5084816003018190555060026000815480929190600101919050555081915050949350505050565b828054600181600116156101000203166002900490600052602060002090601f016020900481019282601f10610ab257805160ff1916838001178555610ae0565b82800160010185558215610ae0579182015b82811115610adf578251825591602001919060010190610ac4565b5b509050610aed9190610af1565b5090565b610b1391905b80821115610b0f576000816000905550600101610af7565b5090565b905600a165627a7a72305820e03848ff6748f745b35aa701722949233fd271180982c317d4c6ce7b2b32310a0029",
  "source": "pragma solidity ^0.4.17;\r\nimport \"./TradingAccount.sol\";\r\n\r\n\r\n/*Clearing firm clears the trade between the buyer and seller accounts.  Simple clearing firm functionality is taken for demonstration\r\nHandling margin and other functions are out of scope.\r\n*/\r\ncontract ClearingFirm\r\n{\r\n  \r\naddress owner;\r\n\r\n  /* Trades are already happened. matching and clearing is done by this contract */\r\nstruct Trade\r\n{\r\nuint tradeId;\r\nuint orderType;\r\nstring status;\r\nuint amount;\r\nuint noofstocks;\r\nstring stockname;\r\n}\r\n\r\nmapping(uint => Trade) public Trades;\r\nuint nextTradeId;\r\n\r\n//Clearing firm creator is the only can execute deposit and withdraw from trading accounts\r\nfunction ClearingFirm() {\r\n    owner = msg.sender;\r\n  }\r\n\r\n\r\n\r\n/* add trades to clear, brokerage firms add these trades to clearing buckets. */\r\nfunction addtradestoClear(uint _NoofStocks,uint _Amount, uint _OrderType, string _StockName) \r\n        public returns (uint Id)\r\n{\r\n var _trade = Trades[nextTradeId];\r\n_trade.tradeId=nextTradeId;\r\n_trade.stockname=_StockName;\r\n_trade.noofstocks=_NoofStocks;\r\n_trade.orderType=_OrderType;\r\n_trade.status= \"0\" ;\r\n_trade.amount= _Amount; \r\n nextTradeId ++;\r\n return Id;                 \r\n}\r\n      \r\n\r\nfunction ClearTrade(address buyer, address seller, uint buytradeId,uint selltradeId, uint Amount) public payable returns(bool) \r\n{\r\n\r\nrequire(msg.sender==owner);\r\n\r\nTradingAccount a = TradingAccount(buyer);\r\nTradingAccount b = TradingAccount(seller);\r\n\r\n/* clear tades before deposit the Amount*/\r\n\r\nTrades[buytradeId].status = \"1\";\r\nTrades[selltradeId].status = \"1\";\r\n\r\nb.withdraw(Amount);\r\na.deposit(Amount);\r\n\r\nreturn true;\r\n\r\n}\r\n\r\n   \r\n//get all Trade fields\r\n  function getTrade(uint id) public constant returns (uint,uint,string,uint,uint,string){\r\n\r\n    var t = Trades[id];\r\n\r\n    return (t.tradeId,t.orderType, t.status, t.amount,t.noofstocks,t.stockname);\r\n  }\r\n\r\n //Get the trade counts to traverse in GUI\r\n  function getTradecount() public constant returns(uint){\r\n\r\n   return nextTradeId;\r\n\r\n  }\r\n\r\n}\r\n",
  "sourcePath": "C:\\blockchain_project\\contracts\\ClearingFirm.sol",
  "compiler": {
    "name": "solc",
    "version": "0.4.24+commit.e67f0147.Emscripten.clang"
  },
  "schemaVersion": "2.0.1",
  "updatedAt": "2018-08-09T19:10:50.337Z"
}