{
  "contractName": "ClearingFirm",
  "abi": [
    {
      "constant": true,
      "inputs": [
        {
          "name": "",
          "type": "uint256"
        }
      ],
      "name": "Trades",
      "outputs": [
        {
          "name": "tradeId",
          "type": "uint256"
        },
        {
          "name": "status",
          "type": "uint256"
        },
        {
          "name": "amount",
          "type": "uint256"
        }
      ],
      "payable": false,
      "stateMutability": "view",
      "type": "function"
    },
    {
      "constant": false,
      "inputs": [],
      "name": "Constructor",
      "outputs": [],
      "payable": false,
      "stateMutability": "nonpayable",
      "type": "function"
    },
    {
      "constant": false,
      "inputs": [
        {
          "name": "_Amount",
          "type": "uint256"
        }
      ],
      "name": "addtradestoClear",
      "outputs": [
        {
          "name": "Id",
          "type": "uint256"
        }
      ],
      "payable": false,
      "stateMutability": "nonpayable",
      "type": "function"
    },
    {
      "constant": false,
      "inputs": [
        {
          "name": "buyer",
          "type": "address"
        },
        {
          "name": "seller",
          "type": "address"
        },
        {
          "name": "buytradeId",
          "type": "uint256"
        },
        {
          "name": "selltradeId",
          "type": "uint256"
        },
        {
          "name": "Amount",
          "type": "uint256"
        }
      ],
      "name": "ClearTrade",
      "outputs": [
        {
          "name": "",
          "type": "bool"
        }
      ],
      "payable": true,
      "stateMutability": "payable",
      "type": "function"
    },
    {
      "constant": true,
      "inputs": [
        {
          "name": "id",
          "type": "uint256"
        }
      ],
      "name": "getTrade",
      "outputs": [
        {
          "name": "",
          "type": "uint256"
        },
        {
          "name": "",
          "type": "uint256"
        },
        {
          "name": "",
          "type": "uint256"
        }
      ],
      "payable": false,
      "stateMutability": "view",
      "type": "function"
    },
    {
      "constant": true,
      "inputs": [],
      "name": "getTradecount",
      "outputs": [
        {
          "name": "",
          "type": "uint256"
        }
      ],
      "payable": false,
      "stateMutability": "view",
      "type": "function"
    }
  ],
  "bytecode": "0x608060405234801561001057600080fd5b5061055d806100206000396000f300608060405260043610610078576000357c0100000000000000000000000000000000000000000000000000000000900463ffffffff168063026c23341461007d57806318385f48146100a85780632db25e05146100f75780632e748715146101465780638a3c44a5146101d2578063d4cb6f46146101e9575b600080fd5b34801561008957600080fd5b5061009261022a565b6040518082815260200191505060405180910390f35b3480156100b457600080fd5b506100d360048036038101908080359060200190929190505050610234565b60405180848152602001838152602001828152602001935050505060405180910390f35b34801561010357600080fd5b5061012260048036038101908080359060200190929190505050610263565b60405180848152602001838152602001828152602001935050505060405180910390f35b6101b8600480360381019080803573ffffffffffffffffffffffffffffffffffffffff169060200190929190803573ffffffffffffffffffffffffffffffffffffffff16906020019092919080359060200190929190803590602001909291908035906020019092919050505061029b565b604051808215151515815260200191505060405180910390f35b3480156101de57600080fd5b506101e761049c565b005b3480156101f557600080fd5b50610214600480360381019080803590602001909291905050506104de565b6040518082815260200191505060405180910390f35b6000603154905090565b60018160108110151561024357fe5b600302016000915090508060000154908060010154908060020154905083565b60008060008060018560108110151561027857fe5b600302019050806000015481600101548260020154935093509350509193909250565b60008060008060009054906101000a900473ffffffffffffffffffffffffffffffffffffffff1673ffffffffffffffffffffffffffffffffffffffff163373ffffffffffffffffffffffffffffffffffffffff161415156102fb57600080fd5b8791508690506001808760108110151561031157fe5b60030201600101819055506001808660108110151561032c57fe5b60030201600101819055508073ffffffffffffffffffffffffffffffffffffffff16632e1a7d4d856040518263ffffffff167c010000000000000000000000000000000000000000000000000000000002815260040180828152602001915050602060405180830381600087803b1580156103a657600080fd5b505af11580156103ba573d6000803e3d6000fd5b505050506040513d60208110156103d057600080fd5b8101908080519060200190929190505050508173ffffffffffffffffffffffffffffffffffffffff1663b6b55f25856040518263ffffffff167c010000000000000000000000000000000000000000000000000000000002815260040180828152602001915050602060405180830381600087803b15801561045157600080fd5b505af1158015610465573d6000803e3d6000fd5b505050506040513d602081101561047b57600080fd5b81019080805190602001909291905050505060019250505095945050505050565b336000806101000a81548173ffffffffffffffffffffffffffffffffffffffff021916908373ffffffffffffffffffffffffffffffffffffffff160217905550565b60008060016031546010811015156104f257fe5b600302019050603154816000018190555060008160010181905550828160020181905550603160008154809291906001019190505550819150509190505600a165627a7a72305820d8164b729857c3844a34076e35b66008b93b3c4a782f53f3d29ebcedecae9c1f0029",
  "source": "pragma solidity ^0.4.17;\r\nimport \"./TradingAccount.sol\";\r\n\r\n\r\n/*Clearing firm clears the trade between the buyer and seller accounts.  Simple clearing firm functionality is taken for demonstration\r\nHandling margin and other functions are out of scope.\r\n*/\r\ncontract ClearingFirm\r\n{\r\n  \r\naddress owner;\r\n\r\n  /* Trades are already happened. matching and clearing is done by this contract */\r\nstruct Trade\r\n{\r\nuint tradeId;\r\n////uint orderType;\r\nuint status;\r\nuint amount;\r\n//uint noofstocks;\r\n//string stockname;\r\n}\r\n\r\nTrade[16] public Trades;\r\nuint nextTradeId;\r\n\r\n//Clearing firm creator is the only can execute deposit and withdraw from trading accounts\r\nfunction Constructor () public {\r\n    owner = msg.sender;\r\n  }\r\n\r\n\r\n\r\n/* add trades to clear, brokerage firms add these trades to clearing buckets. */\r\nfunction addtradestoClear(uint _Amount) \r\n        public returns (uint Id)\r\n{\r\n Trade storage _trade = Trades[nextTradeId];\r\n_trade.tradeId=nextTradeId;\r\n//_trade.stockname=_StockName;\r\n//_trade.noofstocks=_NoofStocks;\r\n//_trade.orderType=_OrderType;\r\n_trade.status=0 ;\r\n_trade.amount= _Amount; \r\n nextTradeId ++;\r\n return Id;                 \r\n}\r\n      \r\n\r\nfunction ClearTrade(address buyer, address seller, uint buytradeId,uint selltradeId, uint Amount) public payable returns(bool) \r\n{\r\n\r\nrequire(msg.sender==owner);\r\n\r\nTradingAccount a = TradingAccount(buyer);\r\nTradingAccount b = TradingAccount(seller);\r\n\r\n/* clear tades before deposit the Amount*/\r\n\r\nTrades[buytradeId].status = 1;\r\nTrades[selltradeId].status = 1;\r\n\r\nb.withdraw(Amount);\r\na.deposit(Amount); \r\n\r\nreturn true;\r\n\r\n}\r\n\r\n   \r\n//get all Trade fields\r\n  function getTrade(uint id) public constant returns (uint,uint,uint){\r\n\r\n   Trade storage t = Trades[id];\r\n\r\n    return (t.tradeId, t.status, t.amount);\r\n  }\r\n\r\n //Get the trade counts to traverse in GUI\r\n  function getTradecount() public view returns(uint){\r\n\r\n   return nextTradeId;\r\n\r\n  }\r\n\r\n}\r\n",
  "sourcePath": "C:\\vasanthi\\blockchain-project\\contracts\\ClearingFirm.sol",
  "compiler": {
    "name": "solc",
    "version": "0.4.24+commit.e67f0147.Emscripten.clang"
  },
  "schemaVersion": "2.0.1",
  "updatedAt": "2018-08-12T19:31:48.256Z"
}